:020000040800F2
:10000000B0040120D10B0108511100085311000860
:10001000571100085B1100085F1100080000000084
:10002000000000000000000000000000AD02000819
:1000300063110008000000000103000865110008BA
:10004000EB0B0108EB0B0108EB0B0108EB0B0108B4
:10005000EB0B0108EB0B0108EB0B0108EB0B0108A4
:10006000EB0B0108EB0B0108EB0B0108EB0B010894
:10007000EB0B0108EB0B0108EB0B0108EB0B010884
:10008000EB0B0108EB0B0108EB0B0108EB0B010874
:10009000EB0B0108EB0B0108EB0B0108EB0B010864
:1000A000EB0B0108EB0B0108EB0B0108EB0B010854
:1000B000EB0B0108EB0B0108EB0B0108EB0B010844
:1000C000EB0B0108EB0B0108EB0B0108EB0B010834
:1000D000EB0B0108EB0B0108EB0B0108EB0B010824
:1000E000C3790108EB0B0108EB0B0108EB0B0108CE
:1000F000CF790108EB0B0108EB0B0108EB0B0108B2
:10010000EB0B0108EB0B0108EB0B0108EB0B0108F3
:10011000EB0B0108EB0B0108C1120008EB0B010807
:10012000EB0B0108EB0B0108EB0B0108EB0B0108D3
:10013000EB0B0108EB0B0108EB0B0108EB0B0108C3
:10014000EB0B0108EB0B0108EB0B0108EB0B0108B3
:10015000EB0B0108EB0B0108EB0B0108EB0B0108A3
:10016000EB0B0108EB0B0108EB0B0108EB0B010893
:10017000EB0B0108EB0B0108EB0B01080000000082
:10018000EB0B0108EB0B0108EB0B0108EB0B010873
:10019000EB0B0108EB0B0108EB0B0108EB0B010863
:1001A000097601087D1100087311000800F002F8BB
:1001B00000F06CF80AA090E8000C82448344AAF195
:1001C0000107DA4501D100F061F8AFF2090EBAE893
:1001D0000F0013F0010F18BFFB1A43F0010318477B
:1001E0003C130C005C130C000A444FF0000C10F898
:1001F000013B13F0070408BF10F8014B1D1108BFA5
:1002000010F8015B641E05D010F8016B641E01F844
:10021000016BF9D113F0080F1EBF10F8014BAD1C94
:100220000C1B09D16D1E58BF01F801CBFAD505E0B2
:1002300014F8016B01F8016B6D1EF9D59142D6D30C
:10024000704700000023002400250026103A28BF34
:1002500078C1FBD8520728BF30C148BF0B60704738
:10026000642923F04B86002070471FB527F09FF9C3
:100270009DE8030024F02EF923F091FE23F09CFF6B
:100280001FBD10B5002024F09CF810BD24F0B5F976
:100290001146FFF7EAFF00F094FF24F0EDF903B4F4
:1002A000FFF7EFFF03BC23F0ABFF00002B4B1968F7
:1002B0000868B0E8F04F80F30988BFF36F8F4FF004
:1002C000000080F3118870470000000006480068B5
:1002D000006880F3088862B661B6BFF34F8FBFF342
:1002E0006F8F00DF00BF00BF08ED00E0DFF80C00FB
:1002F000016841F470010160704700BF88ED00E0C3
:10030000EFF30980BFF36F8F144B1A681EF0100FC4
:1003100008BF20ED108A20E9F04F106008B44FF0BC
:10032000500080F31188BFF34F8FBFF36F8F14F02D
:100330002CFE4FF0000080F3118808BC1968086893
:10034000B0E8F04F1EF0100F08BFB0EC108A80F339
:100350000988BFF36F8F704700BF00BF18010020EE
:10036000EFF30580704700000B49D1F800C04A68E0
:100370005CF8043B1068184442F8040B8C4528BF15
:10038000A1F1DC0C8A4228BFA1F1DC02C1F800C057
:100390004A6020F000407047EC9B002070B5044696
:1003A0000D46012660480480604805806048416829
:1003B0008220884740F61101884203D15C485D499C
:1003C000086000264EB95B480068016882208847B3
:1003D00058480068C16882208847304670BD10B513
:1003E00054480068816982208847002010BD10B5FC
:1003F00050480068016A8220884710BD2DE9FC4101
:1004000004464C4800680169822088472080208883
:1004100000287DD0474800686A4601A943698220C8
:100420009847BDF80000A0F5B47080B20090BDF808
:1004300000000B2190FBF1F086B2002E01DC0026BB
:1004400007E03A480088864203DD38480088401EAD
:1004500086B20096BDF8040040F6B831884207DC49
:10046000BDF8040040F61E71081A80B2019006E043
:10047000BDF8040040F6D861081A80B20190BDF8BA
:1004800004000F2190FBF1F085B2002D01DC002566
:1004900007E025480088854203DD23480088401E88
:1004A00085B20195BDF8040023490968884205D941
:1004B000BDF8040020490968401A04E01E4800689D
:1004C000BDF80410401A87B2BDF800001B49096846
:1004D000884205D9BDF8000018490968401A04E0AF
:1004E00016480068BDF80010401A1FFA80F807EBA4
:1004F0000800052807DDBDF804000F490860BDF8B5
:1005000000000E4908600C48008860800B4800E03D
:1005100001E00088A080BDE8FC8110B505480068B6
:10052000C1698220884710BD040000200600002019
:100530006800002000000020080000200C000020BF
:10054000FE48704710B586B0044600BF7CB900BFB6
:1005500000200090FA48006840F04000F849086028
:100560000846006800F04000009000BF11E0012C38
:100570000FD100BF00200090F148006840F040001B
:10058000EF4908600846006800F04000009000BF96
:1005900000BF00BFEB4830F814000190012002902A
:1005A000039002200490E84951F8240001A901F0C9
:1005B0008DFBE44A32F81410E34A52F8240000227A
:1005C00001F027FD06B010BD10B50446DD4A32F833
:1005D0001410DD4A52F82400012201F01AFD10BD6A
:1005E00010B50446D74A32F81410D74A52F82400FE
:1005F000002201F00EFD10BD10B50446D14A32F8BC
:100600001410D14A52F8240001F009FD10BD30B594
:1006100087B004460D4600BF7CB900BF00200190A2
:10062000C748006840F00100C549086008460068F6
:1006300000F00100019000BF00BF00BF75B9C348C2
:1006400030F81400029000200390022004900590DE
:10065000BF4951F8240002A901F038FB012D19D13E
:10066000BA4830F81400029000200490B948039072
:10067000B74951F8240002A901F028FBB649095DE9
:1006800048B200220F2102F087F9B349095D48B250
:1006900002F0C0F907B030BD10B50446AB4A32F8DD
:1006A0001410AB4A52F8240001F0ABFC10BD10B599
:1006B00086B00446A9492068884262D100BF002064
:1006C00000909F48006840F004009D49086008467B
:1006D000006800F00400009000BF00BF00BF0020D1
:1006E00000900846006840F0010008600846006875
:1006F00000F00100009000BF00BF8815019012209B
:10070000029000200390022004900420059001A98B
:10071000934801F0DBFA4FF40070019001A9914871
:1007200001F0D4FA00BF0020009085481030006826
:1007300040F400008249103108600846006800F467
:100740000000009000BF00BF7D481038006840F4F2
:1007500000007B49103908600846006820F400005A
:10076000086000220F21482002F016F9482002F00C
:1007700051F900220F21492002F00EF9492002F020
:1007800049F906B010BD10B5774806F0E4FDA8B9E8
:100790007248754908607548486000217248816058
:1007A000C1604FF480410161002141618161C161FB
:1007B0000162FFF77CFF6C4803F035FA10BD00B50D
:1007C00087B000BF002001905D48006840F0010044
:1007D0005B4908600846006800F00100019000BF16
:1007E00000BF4FF4004002900120049000200590CB
:1007F0005F48039002A95A4801F068FA00220F21CD
:10080000282002F0C9F8282002F004F907B000BD42
:1008100010B5554803F097FAFFF7B5FF10BD77B54F
:1008200083B004460D46002652480068012105AAFF
:100830000B46CDE9002102902A4621464A4805F0A0
:1008400040F906460EB1FFF7E3FF06B070BD2DE993
:10085000FE4304460D4616461F464FF00008454825
:10086000006801232A462146CDE9006702903E48F0
:1008700005F027F98046B8F1000F01D0FFF7C8FF57
:10088000BDE8FE837FB504460D4600260020039098
:1008900038480068012103AA0B46CDE900210290E7
:1008A0002A462146304805F082FA06460EB1FFF787
:1008B000AFFF9DF80C0004B070BD2DE9FE43044667
:1008C0000D4616461F464FF000082A4800680123CF
:1008D0002A462146CDE900670290234805F067FAD1
:1008E0008046B8F1000F02D10020BDE8FE83FFF77B
:1008F0008FFF0120F9E710B586B0044600BF002045
:1009000000900F481430006840F480100C491431F6
:1009100008600846006800F48010009000BF00BF27
:1009200000BF002000900648006840F02000044905
:1009300008600846006800F020001DE00006010283
:1009400030380240B875020810000020BC7502085B
:100950001800002000001110BE750208005C004065
:100960000000024000080240880A0020A086010022
:10097000000021101C000020009000BF00BF4FF4B9
:1009800060700190022002900390012004900520E5
:10099000059001A9F04801F099F906B010BD10B515
:1009A000EE4810F004F9F0B9ED48EC490860182160
:1009B000EA48C161002181604161016181620721D2
:1009C000C1620021C16001624FF4007181610021A8
:1009D00041624FF48270E14948600846FFF78BFF9F
:1009E000DE480EF042FB10BD10B5DC480EF08EFB69
:1009F000FFF7D5FF10BD38B504460025D94822467B
:100A000069460368D5480EF05BFE05460DB1FFF759
:100A1000EBFF009838BD31B50024D2480122694669
:100A20000368CE480EF0F6FB04460CB1FFF7DCFF7E
:100A300038BD01B582B000200190CA48006801238A
:100A400001AA02A90090C5480EF0D4FC08B1FFF736
:100A5000CBFF9DF804000EBD00B587B0C2480078FA
:100A6000002863D10120C049087000BF0020019018
:100A7000BE48006840F00800BC49086008460068AD
:100A800000F00800019000BF00BF4FF4005002903A
:100A900001200390002004900220059002A9B44890
:100AA00001F014F900BF00200190B048006840F048
:100AB0000800AE4908600846006800F00800019090
:100AC00000BF00BF88140290012003900020049012
:100AD0000220059002A9A64801F0F8F800BF002006
:100AE0000190A248006840F00400A0490860084650
:100AF000006800F00400019000BF00BF04200290D5
:100B000001200390002004900220059002A999483A
:100B100001F0DCF800220421964801F07AFA012263
:100B20000421944801F075FAFFF739FF07B000BDC2
:100B300010B50446012251038D4801F06AFA0022E3
:100B400004218C4801F065FA2046FFF764FF01227A
:100B50000421884801F05DFA10BD10B5044600225A
:100B60004FF40051824801F054FA002204218148D8
:100B700001F04FFA2046FFF74EFF012204217D4885
:100B800001F047FA10BD70B505460C46002600225C
:100B90000421784801F03DFA00224FF400517448D6
:100BA00001F037FA2846FFF736FF2046FFF723FF0C
:100BB0000646012251036E4801F02BFA012204215E
:100BC0006C4801F026FA304670BD10B50446204648
:100BD00002F088FD10BD10B5FFF7D5FD10BD10B5B2
:100BE000FFF7EDFD10BD70B504460D4616463246C2
:100BF00029462046FFF713FE70BD70B504460D462A
:100C000029462046FFF73EFE70BD2DE9F04104461F
:100C10000D4616461F463B46324629462046FFF7FC
:100C200016FEBDE8F0812DE9F04104460D4616465A
:100C30001F463B46324629462046FFF73EFEBDE8AA
:100C4000F08110B50446204602F04CFD10BD00B501
:100C500087B000BF002001904448006840F00400C5
:100C6000424908600846006800F00400019000BF97
:100C700000BF022002900120039000200490012078
:100C8000059002A93B4801F021F8012202213948D0
:100C900001F0BFF900BF002001903448006840F027
:100CA0000100324908600846006800F00100019028
:100CB00000BF00BF06200290002003900220059094
:100CC0000020049002A92C4801F000F8FFF767FE0D
:100CD00007B000BD70B505460E461446012C01DD77
:100CE00046F0400600220221224801F092F93046E7
:100CF000FFF79FFE05E02878FFF79BFE601E84B299
:100D00006D1C012CF7DA012202211A4801F081F949
:100D100070BD70B506460C461546012D02DD44F047
:100D2000C00401E044F0800400220221114801F0D7
:100D300070F92046FFF77DFE06E00020FFF779FE00
:100D40003070681E85B2761C002DF6DC012202216F
:100D5000084801F05EF970BD00140240DC0A002072
:100D600000500140200000202400002030380240C4
:100D7000000C0240000802400000024038B5044662
:100D8000002000900120E34908600820486001200D
:100D900088600020C8604FF6FF72DF4802F0EEFE68
:100DA000012002F09FFC0220DA4908600820486018
:100DB000012088600020C8604FF6FF72D64802F01C
:100DC000DDFE0320D34908600820486004208860C5
:100DD0000020C8604FF6FF72CF4802F0CFFE4FF4FC
:100DE0000C7000900420CB49086008204860012066
:100DF00088600098C8604FF6FF72C74802F0BEFED8
:100E00002146C54802F0D7FE38BD30B587B004464C
:100E10000D46002C7ED000BF00200190BF48006826
:100E200040F00100BD4908600846006800F001007C
:100E3000019000BF00BF00BF00200190B7480838F4
:100E4000006840F48000B549083908600846006829
:100E500000F48000019000BF00BF00BF002001909F
:100E60000846006840F0020008600846006800F08C
:100E70000200019000BF00BF00BF002001900846A3
:100E8000006840F0040008600846006800F00400B4
:100E9000019000BF00BF00BF00200190084600681D
:100EA00040F0080008600846006800F00800019063
:100EB00000BF00BF00BF002001900846006840F05E
:100EC000100008600846006800F01000019000BFA4
:100ED00000BF00BF002001900846006840F02000DD
:100EE00008600846006800F02000019000BF00BFC5
:100EF00000BF002001900846006840F040000860F4
:100F00000846006800F04000019000BF00BF0220CA
:100F1000039000E05BE00590002004900C20069018
:100F20006020029002A97E4800F0D0FE01200290CD
:100F300002A97C4800F0CAFE4CF20370029002A99C
:100F4000794800F0C3FE4FF68370029002A97748FB
:100F500000F0BCFE4FF63F00029002A9744800F07A
:100F6000B5FE48F23310029002A9724800F0AEFEBE
:100F700000207149486080216F4881608900C1600C
:100F80004900016189004161890081610021C161DD
:100F90004FF400310162002141620321816200218E
:100FA000C162016365486449086000BF0846206368
:100FB000846300BF01F058F95F4801F0E1F80022B6
:100FC0000F21382001F0E8FC382001F023FD07B0A4
:100FD00030BD10B55A485049086002205949086090
:100FE00007204860042088600720C860022008614C
:100FF0004861886101204849486000214648816075
:101000000421C16010210161402141614FF4C07190
:1010100081610021C1614FF40061016200214162E0
:101020004FF4005181620021FFF7EFFE45493A4835
:1010300002F0DDFB18B101204349087002E00020F6
:101040004149087040F26A50FFF798FE3E48007828
:1010500010BD70B504460D46164633462A46214655
:101060002D4802F0B0FC08B1012070BD0020FCE763
:1010700070B504460D46164633462A462146264894
:1010800002F0F4FC08B1012070BD0020FCE770B54F
:1010900004460D461646204802F05DFD33462A46BA
:1010A00021461D4802F0B7FC08B1012070BD0020A8
:1010B000FCE770B504460D46164633462A462146DF
:1010C000154802F003FD08B1012070BD0020FCE7C7
:1010D00010B504464FF6FF7221460F4802F04EFD50
:1010E00008B1012010BD0020FCE710B50A49086BCB
:1010F00001F09DFA10BD70B504460D4644B138208C
:1011000001F095FC0D4811490860084601F0ACF863
:1011100070BD0000840B0020340B002038380240E2
:101120000004024000080240000C0240001002408F
:101130000014024000180240940B0020106402408A
:10114000400100A0680B002025000020F40B0020C7
:10115000704700BFFEE700BFFEE700BFFEE700BF2D
:10116000FEE7704710B50D48007808B115F00AFC8D
:1011700010BD10B50A4809F0B7FF10BD094908684D
:10118000096801F0020141B10221064A121D1160F5
:1011900005490968491C044A116070479C010020F8
:1011A000048F0020386801402800002070B50546F3
:1011B00000BF0F48006804460068C16820468847A1
:1011C00070BD1CB515F0B4FE15F02FFE16F0D6FD5F
:1011D0000020032103464FF48062CDE9001005A1F1
:1011E000064813F023FB14F05FF800BFFEE7000091
:1011F0008C0200204755495461736B00AD11000803
:10120000F0B587B005460026002700222946362083
:1012100001F0C2FB362001F0FDFB00BF0020009072
:101220002A48006840F01000284908600846006815
:1012300000F01000009000BF00BF01A902A80DF04F
:10124000E1FE059E1EB90DF037FE044602E00DF0EA
:1012500033FE44001E48B4FBF0F0471E1D481E49F3
:10126000086040F2E7311C48C1604760002101611D
:1012700081600AF008FF20B917480AF06DFF07B037
:10128000F0BD0120FBE714480068C06820F00100B1
:1012900011490968C86070470F480068C06840F08D
:1012A00001000D490968C860704710B5044602F096
:1012B00010FA0A492068884201D116F05BFD10BD82
:1012C00010B505480CF01CFA10BD00004038024073
:1012D00040420F0000100040540C0020001C004051
:1012E0003F48006840F470003D4908603D48006890
:1012F00040F001003B49086000203A49083108608D
:101300003848006838490840364908603748091DA0
:101310000860081F006820F48020091F0860002072
:1013200030490C3108604FF000602D498039086069
:10133000704770B500200022022300240221294DAD
:1013400008352D6805F00C0020B1042806D00828C7
:1013500034D107E0264D274E356033E0264D254E2B
:1013600035602FE01F4D2D1D2D68C5F380541D4D98
:101370002D1D2D6805F03F0154B11F4DB5FBF1F552
:10138000184E361D3668C6F3881605FB06F209E0CE
:10139000174DB5FBF1F5134E361D3668C6F38816AA
:1013A00005FB06F20F4D2D1D2D68C5F301456D1C83
:1013B0006B00B2FBF3F50F4E356003E00C4D0D4EA4
:1013C000356000BF00BF074D08352D68C5F3031514
:1013D0000A4E705D074D2D68C540064E356070BDE4
:1013E00088ED00E000380240FFFFF6FE10300024D8
:1013F0000024F4002C00002000127A00BF750208BF
:1014000010B504462046FFF7A8FB10BD10B50446F2
:101410002046FFF78DFB10BD10B5FFF71DFBCA205E
:10142000FFF7EEFFC320FFF7F1FF0820FFF7EEFF05
:101430005020FFF7EBFFCF20FFF7E2FF0020FFF780
:10144000E5FFC120FFF7E2FF3020FFF7DFFFED20CF
:10145000FFF7D6FF6420FFF7D9FF0320FFF7D6FF81
:101460001220FFF7D3FF8120FFF7D0FFE820FFF71E
:10147000C7FF8520FFF7CAFF0020FFF7C7FF7820CE
:10148000FFF7C4FFCB20FFF7BBFF3920FFF7BEFFFC
:101490002C20FFF7BBFF0020FFF7B8FF3420FFF739
:1014A000B5FF0220FFF7B2FFF720FFF7A9FF2020CA
:1014B000FFF7ACFFEA20FFF7A3FF0020FFF7A6FF2E
:1014C0000020FFF7A3FFB120FFF79AFF0020FFF7EE
:1014D0009DFF1B20FFF79AFFB620FFF791FF0A2020
:1014E000FFF794FFA220FFF791FFC020FFF788FFCE
:1014F0001020FFF78BFFC120FFF782FF1020FFF7BE
:1015000085FFC520FFF77CFF4520FFF77FFF1520F3
:10151000FFF77CFFC720FFF773FF9020FFF776FFF0
:101520003620FFF76DFFC820FFF770FFF220FFF7AE
:1015300067FF0020FFF76AFFB020FFF761FFC220BE
:10154000FFF764FFB620FFF75BFF0A20FFF75EFF9F
:10155000A720FFF75BFF2720FFF758FF0420FFF7C6
:1015600055FF2A20FFF74CFF0020FFF74FFF002018
:10157000FFF74CFF0020FFF749FFEF20FFF746FF82
:101580002B20FFF73DFF0020FFF740FF0020FFF773
:101590003DFF0120FFF73AFF3F20FFF737FFF6201E
:1015A000FFF72EFF0120FFF731FF0020FFF72EFF8E
:1015B0000620FFF72BFF2C20FFF722FFC820FFF7A4
:1015C00004FB2620FFF71CFF0120FFF71FFFE02090
:1015D000FFF716FF0F20FFF719FF2920FFF716FF6F
:1015E0002420FFF713FF0C20FFF710FF0E20FFF75A
:1015F0000DFF0920FFF70AFF4E20FFF707FF7820B5
:10160000FFF704FF3C20FFF701FF0920FFF7FEFE74
:101610001320FFF7FBFE0520FFF7F8FE1720FFF76A
:10162000F5FE1120FFF7F2FE0020FFF7EFFEE120AC
:10163000FFF7E6FE0020FFF7E9FE1620FFF7E6FEC3
:101640001B20FFF7E3FE0420FFF7E0FE1120FFF769
:10165000DDFE0720FFF7DAFE3120FFF7D7FE33204B
:10166000FFF7D4FE4220FFF7D1FE0520FFF7CEFEA4
:101670000C20FFF7CBFE0A20FFF7C8FE2820FFF75B
:10168000C5FE2F20FFF7C2FE0F20FFF7BFFE11207F
:10169000FFF7B6FEC820FFF798FA2920FFF7B0FE43
:1016A0002C20FFF7ADFE10BD70B504460D4629464F
:1016B0002046FFF768FA70BD10B5FFF7CDF903219A
:1016C000D320FFF7F1FF80B210BD10B52920FFF73E
:1016D00097FE10BD10B52820FFF792FE10BDF02038
:1016E00070474FF4A070704710B50446E0B2022274
:1016F0000321FFF778FA0A20FFF7A3FAE0B20022ED
:101700000321FFF770FA0220FFF79BFA10BD024693
:10171000002100BF07E0F948405C904201D1084633
:101720007047481CC1B20229F5DBFF20F8E770B50D
:1017300005462846FFF7EBFF0646FF2E0CD100209A
:10174000FFF7E5FF0446022C06DAEC490D55FFF7DA
:1017500042FA2846FFF7C8FF70BD70B50446FFF790
:101760003AFAE0B20121FFF748FA0546E0B200215B
:10177000FFF743FA45EA002070BD70B50446002526
:10178000E0B20921FFF739FA054645F00105E0B25C
:101790002A460921FFF727FA70BD70B504460025D7
:1017A000E0B20921FFF729FA054625F00105E0B26C
:1017B0002A460921FFF717FA70BD70B504460D4699
:1017C0000026E0B20A21FFF718FA06462E43E0B2DF
:1017D00032460A21FFF707FA70BD70B504460D4680
:1017E0000026E0B20A21FFF708FA0646AE43E0B24F
:1017F00032460A21FFF7F7F970BD70B504460E4670
:101800000025E0B20921FFF7F8F9054625F00405A7
:101810003543E0B22A460921FFF7E5F970BD70B5FE
:1018200004460E460025E0B20921FFF7E6F9054619
:1018300025F002053543E0B22A460921FFF7D3F926
:1018400070BD70B505460C46E8B20B21FFF7D5F91F
:101850002040A04201D1012070BD0020FCE770B5FE
:1018600004460D46E0B20B21FFF7C7F9284070BDD2
:1018700070B504460D46E0B22A460B21FFF7B3F9D6
:1018800070BD70B504460D460026E0B21721FFF783
:10189000B4F90646E8B20643E0B232461721FFF734
:1018A000A2F970BD70B504460D46E0B20421FFF701
:1018B000A4F9064626F00506E0B232460421FFF7F9
:1018C00092F9E9B22046FFF7DCFF70BD2DE9F04147
:1018D00004460D4617460026E0B21321FFF78DF9A6
:1018E000064617B1E8B2064300E0AE43E0B2324626
:1018F0001321FFF778F9BDE8F08170B504460D4675
:101900000026E0B20C21FFF778F90646E8B206435C
:10191000E0B232460C21FFF766F970BD10B50446FF
:10192000FFF75DF980212046FFF747FF2046FFF7CC
:1019300024FF10BD2DE9F04104460D461646002750
:10194000B846E0B21621FFF758F90746E0B2152174
:10195000FFF753F98046AF4328EA050806F0010077
:1019600008B1E8B2074306F0020010B1E8B240EA5D
:101970000808E0B23A461621FFF735F9E0B24246D0
:101980001521FFF730F9BDE8F0812DE9F04105465A
:101990000E4614460027062C66D2DFE804F0030941
:1019A0000F253B50002231462846FFF78FFF5DE0B0
:1019B000012231462846FFF789FF57E02846FFF706
:1019C000ADFF31462846FFF798FF002231462846F2
:1019D000FFF77CFF02212846FFF721FF0222314654
:1019E0002846FFF7A7FF41E02846FFF797FF31465B
:1019F0002846FFF782FF002231462846FFF766FFA0
:101A000002212846FFF70BFF012231462846FFF747
:101A100091FF2BE02846FFF781FF31462846FFF76C
:101A20006CFF002231462846FFF750FF0021284670
:101A3000FFF7F5FE00212846FFF7DFFE16E02846F7
:101A4000FFF76CFF31462846FFF757FF002231466B
:101A50002846FFF73BFF00212846FFF7E0FE042160
:101A60002846FFF7CAFE01E0274600BF00BF384600
:101A7000BDE8F08170B504460D460026E0B217219E
:101A8000FFF7BBF80646AE43E0B232461721FFF738
:101A9000AAF870BD70B504460D4616462EB1EAB2DE
:101AA000E0B21021FFF79FF804E0EAB2E0B21121A2
:101AB000FFF799F870BD70B504460D46E0B21221EB
:101AC000FFF79BF8284070BD10B504462046FFF78D
:101AD00064FE80212046FFF780FE10BD70B50446ED
:101AE0000D460026E0B20C21FFF787F80646AE430C
:101AF000E0B232460C21FFF776F870BDBC00002042
:101B000070B504460D46E0B20D21FFF776F8284087
:101B100070BD70B504460D4680212046FFF7A8FE33
:101B2000EAB2E0B20D21FFF75EF8EAB2E0B21421AA
:101B3000FFF759F8EAB2E0B21521FFF754F8EAB21C
:101B4000E0B21621FFF74FF870BD70B50446E0B261
:101B50000421FFF752F8054625F00405E0B22A46B5
:101B60000421FFF740F8F0212046FFF783FF25F01E
:101B70000305E0B22A460421FFF735F8E0B2492216
:101B80002021FFF730F80220FFF75BF8E0B20122D6
:101B90002121FFF728F8E0B29A224121FFF723F82C
:101BA000E0B201224A21FFF71EF8E0B201224B21E8
:101BB000FFF719F8E0B200224B21FFF714F8E0B26A
:101BC00001225621FFF70FF8E0B201225821FFF75A
:101BD0000AF8E0B201224021FFF705F8E0B2FF2247
:101BE0000B21FFF700F80220FFF72BF870BD70B54E
:101BF00004460026E0B24021FEF7FFFFC509002D94
:101C000007DDE0B24C21FEF7F8FF00280BDD0126CE
:101C100009E0E0B201224B21FEF7E5FFE0B200222D
:101C20004B21FEF7E0FF304670BDF8B504460D4687
:101C30001646E0B204236A46D721FEF7F4FF9DF86A
:101C4000000000069DF8011040EA01409DF80210D6
:101C500040EA01209DF8031040EA010740F6FF70BA
:101C600000EA17502880C7F30B203080E0B2012231
:101C70004B21FEF7B8FFE0B200224B21FEF7B3FF85
:101C8000F8BD10B50446FEF7AAFF1F212046FFF756
:101C900094FD2046FFF771FD10BD10B504462046A7
:101CA000FFF77BFD1F212046FFF797FD10BD10B504
:101CB00004461F212046FFF7D2FD10BD10B5044693
:101CC0001F212046FFF7D4FD10BD0000F8B50246E5
:101CD0000B460025002400200021E6E0012606FA3C
:101CE00001F51E6806EA0504AC4273D15E68022E57
:101CF00002D05E68122E13D1CF0802F1200656F8EA
:101D000027004E07F70E0F26BE40B0434F07FF0EC9
:101D10001E69BE403043CF0802F1200646F8270076
:101D200010684F000326BE40B0431E7906F003063C
:101D30004F00BE40304310605E68012E08D05E68E0
:101D4000022E05D05E68112E02D05E68122E13D1CD
:101D500090684F000326BE40B0434F00DE68BE408F
:101D600030439060506801268E40B0431E79C6F320
:101D700000168E4030435060D0684F000326BE40AE
:101D8000B0434F009E68BE403043D0605E6806F0AE
:101D90008056B6F1805FA8D100BF00260096B54EF0
:101DA000366846F48046B34F3E603E46366806F4D9
:101DB0008046009600BF00BFAF4E8F0856F8270040
:101DC0008E07370F0F26BE40B043AC4EB24202D151
:101DD00000262EE068E0AA4EB24201D1012628E09A
:101DE000A84EB24201D1022623E0A74EB24201D151
:101DF00003261EE0A54EB24201D1042619E0A44EEE
:101E0000B24201D1052614E0A24EB24201D106260B
:101E10000FE0A14EB24201D107260AE09F4EB24226
:101E200001D1082605E09E4EB24201D1092600E00C
:101E30000A268F073F0FBE4030438F4E8F0846F86B
:101E40002700984E3068A0435E6806F48036B6F5E9
:101E5000803F00D12043934E3060361D3068A04350
:101E60005E6806F40036B6F5003F00D120438D4E83
:101E7000361D3060361D3068A0435E6806F480165B
:101E8000B6F5801F00D12043864E08363060361DDF
:101E90003068A0435E6806F40016B6F5001F00D156
:101EA0002043804E0C363060491C1029FFF416AFD9
:101EB000F8BDF0B50C4600250022002300219CE06F
:101EC000012606FA01F504EA0502AA427DD1066858
:101ED0004FEA410C032707FA0CF7BE430660CF0810
:101EE00000F1200656F827604F074FEAD76C0F27FE
:101EF00007FA0CF7BE434FEAD10C00F1200747F870
:101F00002C6086684FEA410C032707FA0CF7BE43A2
:101F10008660476801268E40B7434760C6684FEA2F
:101F2000410C032707FA0CF7BE43C660524E8F08D8
:101F300056F827308E07370F0F26BE4033404F4EDE
:101F4000B04201D100262DE04D4EB04201D1012614
:101F500028E04C4EB04201D1022623E04A4EB04266
:101F600001D103261EE0494EB04201D1042619E0FA
:101F7000474EB04201D1052614E0464EB04201D191
:101F800006260FE0444EB04201D107260AE0434E38
:101F9000B04201D1082605E0414EB04201D10926E8
:101FA00000E00A268F073F0FBE409E4224D18E07D5
:101FB000370F0F2606FA07F32F4E8F0856F82760C3
:101FC0009E432D4F4FEA910C00E015E047F82C603E
:101FD000344E36689643334F3E603E1D3668964316
:101FE0003F1D3E603E1D366896433F1D3E603E1DD0
:101FF000366896433F1D3E60491C1029FFF460AFD0
:10200000F0BD024613690B400BB1012000E0002037
:1020100070470AB1816101E00B0483617047426936
:102020004A404261704708B502464FF48030009044
:102030000098084300900098D061D1610098D06169
:10204000D0690090D06900F4803008B1002008BD4C
:102050000120FCE7704710B50446124814300068B0
:10206000204028B10F4814300460204615F0E6FDEA
:1020700010BD000044380240083801400000024012
:102080000004024000080240000C02400010024020
:102090000014024000180240001C024000200240D0
:1020A00000240240003C0140014608781038182303
:1020B000B0FBF3F2FB48805CC865032A05D90868C9
:1020C0006FF30900001D886503E008686FF30900DD
:1020D0008865886D7047014600208A6A8B69CBB994
:1020E00032B1012A0DD0022A03D0032A10D10EE00A
:1020F00000BFCB6A03F08073B3F1807F00D1012071
:1021000007E0CB6AB3F1C07F00D1012001E000E01D
:1021100000BF34E08B69B3F5005F1AD132B1012AF8
:1021200007D0022A03D0032A11D10AE000BF012000
:102130000EE0CB6A03F08073B3F1807F00D1012001
:1021400006E0CB6AB3F1C07F00D1012000E000BF00
:1021500015E032B1012A05D0022A04D0032A0CD19D
:1021600003E000BF00BF012008E0CB6A03F08073EA
:10217000B3F1807F00D1012000E000BF00BF7047B5
:102180002DE9F0410446002501F0A9FA074614B9EB
:102190000120BDE8F081606A00B100BF00BF0020EF
:1021A00084F8340000BF022084F8350020680068FD
:1021B00020F00100216808600AE001F090FAC01BDD
:1021C000052805D920206065032084F83500E0E764
:1021D0002068006800F001000028EED12068056842
:1021E000B1480540D4E901010843E1680843216989
:1021F000084361690843A1690843E1690843216A0A
:1022000008430543606A042803D1D4E90B0108435D
:102210000543206805602068456925F00705606A68
:102220000543606A04280DD1A06A0543E06A48B1FD
:102230002046FFF750FF28B140206065012084F858
:102240003500A6E7206845612046FFF72DFF0646CA
:1022500094F85C103F208840B06000206065012049
:1022600084F83500002094E770B504460CB90120CD
:1022700070BD94F83500022800D1F9E720680068A5
:1022800020F00100216808600020216808602168B2
:102290004860216888602168C86021680861212041
:1022A000216848612046FFF7FFFE054694F85C1060
:1022B0003F208840A8600020606584F8350000BF9A
:1022C00084F8340000BF00BFD2E730B5046824684A
:1022D00024F4802405682C60046863608468402CC2
:1022E00004D10468A2600468E16003E00468A160AE
:1022F0000468E26030BD2DE9F04104460D46164603
:102300001F464FF0000800BF94F83400012802D1A6
:102310000220BDE8F081012084F8340000BF94F869
:102320003500012811D1022084F8350000206065B5
:102330003B46324629462046FFF7C7FF2068006823
:1023400040F001002168086006E000BF002084F82A
:10235000340000BF4FF002084046DAE72DE9F047AD
:1023600004460D4616461F464FF00008D4F8589014
:1023700000BF94F83400012802D10220BDE8F087A4
:10238000012084F8340000BF94F8350001282BD1D7
:10239000022084F83500002060653B46324629461D
:1023A0002046FFF792FF94F85C103F208840C9F860
:1023B00008002068006840F0160021680860206866
:1023C000406940F0800021684861206C28B1206895
:1023D000006840F00800216808602068006840F04C
:1023E00001002168086006E000BF002084F8340086
:1023F00000BF4FF002084046C0E770B50446A56D27
:1024000001F06DF9064694F83500022808D08020C6
:10241000606500BF002084F8340000BF012070BD5B
:102420002068006820F01600216808602068406974
:1024300020F0800021684861206C08B9A06C28B1A8
:102440002068006820F008002168086020680068A3
:1024500020F00100216808600FE001F040F9801BC6
:1024600005280AD92020606500BF002084F83400C8
:1024700000BF032084F83500D1E72068006800F031
:1024800001000028E9D194F85C103F208840A86042
:1024900000BF002084F8340000BF012084F835001C
:1024A0000020BCE7D77502083F8010F0014691F884
:1024B0003500022803D080204865012070470520A0
:1024C00081F835000868006820F001000A68106093
:1024D0000020F3E72DE9F05F0446884617464FF0E9
:1024E000000A01F0FCF8834694F83500022809D070
:1024F0008020606500BF002084F8340000BF012008
:10250000BDE8F09F2068006800F4807020B14FF4AF
:10251000807060650120F3E7B8F1000F05D194F8F1
:102520005C10202000FA01F904E094F85C101020FF
:1025300000FA01F9A56D2E6842E0781C90B12FB128
:1025400001F0CDF8A0EB0B00B8420BD9202060655C
:1025500000BF002084F8340000BF012084F835005B
:102560000320CDE72E6894F85C10082088403040A6
:1025700040B1606D40F00100606594F85C10082087
:102580008840A86094F85C1001208840304040B139
:10259000606D40F00200606594F85C100120884096
:1025A000A86094F85C1004208840304040B1606D11
:1025B00040F00400606594F85C1004208840A86036
:1025C00006EA090020B9606D00F001000028B4D0CF
:1025D000606DA0B1606D00F0010080B12046FFF792
:1025E0000CFF94F85C1030208840A86000BF0020E9
:1025F00084F8340000BF012084F8350080E7B8F18A
:10260000000F0DD194F85C1030208840A86000BF06
:10261000002084F8340000BF012084F8350004E075
:1026200094F85C1010208840A860504668E7F8B520
:10263000044600200090C64800684FF41651B0FBD5
:10264000F1F7A56D2E6894F85C10082088403040A2
:1026500098B12068006800F0040070B1206800683C
:1026600020F004002168086094F85C10082088407D
:10267000A860606D40F00100606594F85C10012076
:102680008840304068B12068406900F0800040B167
:1026900094F85C1001208840A860606D40F0020052
:1026A000606594F85C1004208840304068B1206870
:1026B000006800F0020040B194F85C1004208840EB
:1026C000A860606D40F00400606594F85C10102014
:1026D0008840304078B32068006800F0080050B3AC
:1026E00094F85C1010208840A8602068006800F40E
:1026F000802080B12068006800F4002028B9206C98
:10270000C8B12046216C884715E0A06C98B12046DE
:10271000A16C88470FE02068006800F4807028B939
:102720002068006820F0080021680860206C10B163
:102730002046216C884794F85C1020208840304067
:10274000002865D02068006800F0100000285FD0E5
:1027500094F85C1020208840A86094F83500052883
:1027600028D12068006820F01600216808602068E1
:10277000406920F0800021684861206C08B9A06C95
:1027800028B12068006820F008002168086094F8EB
:102790005C103F208840A86000BF002084F834000F
:1027A00000BF012084F83500206D10B12046216D56
:1027B0008847F8BD2068006800F4802080B1206858
:1027C000006800F4002028B9606C10B12046616CEC
:1027D00088471DE0E06BD8B12046E16B884717E0E1
:1027E0002068006800F4807068B92068006820F0F4
:1027F00010002168086000BF002084F8340000BF8A
:10280000012084F83500E06B10B12046E16B884769
:10281000606D38B3606D00F00100F0B1052084F800
:1028200035002068006820F001002168086000BFC2
:102830000098401C0090B84200D905E0206800686C
:1028400000F001000028F3D100BF00BF002084F891
:10285000340000BF012084F83500E06C10B1204640
:10286000E16C884700BFA4E710B50346002400BF11
:1028700093F83400012801D1022010BD012083F813
:10288000340000BF93F83500012814D1062910D276
:10289000DFE801F0030507090B0DDA630AE01A64AB
:1028A00008E05A6406E09A6404E0DA6402E01A651B
:1028B00000E000BF00E0012400BF002083F83400E6
:1028C00000BF2046D9E70246002300BF92F834003B
:1028D000012801D102207047012082F8340000BF96
:1028E00092F83500012824D107291FD2DFE801F032
:1028F00004070A0D101316000020D06318E0002012
:10290000106415E00020506412E0002090640FE095
:102910000020D0640CE00020106509E00020D063A6
:10292000106450649064D064106501E0012300BF1E
:1029300000E0012300BF002082F8340000BF1846E9
:10294000C9E7014691F8350070470146486D704768
:102950002C00002010B5002807DA0A07140ED94A07
:1029600000F00F031B1FD45403E00A07130ED64ACE
:10297000135410BD00BF00F00702D24B0C3B196886
:102980004FF6FF031940D14B0B4343EA0221CD4BD5
:102990000C3B196000BF70472DE9F05F80460D4683
:1029A0001646002700F087F9074639462A4633467F
:1029B00001F00700C0F1070ABAF1040F02D94FF085
:1029C000040A01E0C0F1070AD14600F1040ABAF195
:1029D000070F02D24FF0000A01E0A0F1030AD4462B
:1029E0004FF0010A0AFA09FAAAF1010A0AEA020AF0
:1029F0000AFA0CFA4FF0010B0BFA0CFBABF1010BCE
:102A00000BEA030B4AEA0B0421464046FFF7A2FFFC
:102A1000BDE8F09F00BF00F01F0201219140420974
:102A2000920002F1E022C2F8001100BF704700BF1F
:102A300000F01F0201219140A54A430942F82310EA
:102A400000BF704700BF00BF00BF00BF00BFBFF3A3
:102A50004F8F00BF00BF00BF9A480C38006800F4D9
:102A6000E0609A490843001D96490C39086000BF90
:102A700000BF00BFBFF34F8F00BF00BF00BF00BF4C
:102A800000BFFDE770B504462546681EB0F1807FA3
:102A900001D301200FE0681E4FF0E02148610F21B3
:102AA0004FF0FF30FFF756FF00204FF0E021886124
:102AB00007200861002070BD00BF00BF00BFBFF34A
:102AC0005F8F00BF00BF00BF7E480C30006820F45D
:102AD00080307C490C31086000207A497C310860E4
:102AE000704740F00101774A7C32116075490C3122
:102AF000096841F48031734A0C32116000BF00BF95
:102B000000BFBFF34F8F00BF00BF00BF00BF00BFBB
:102B100000BFBFF36F8F00BF00BF00BF7047417899
:102B2000684A803211600178F9B1121D4168116064
:102B3000017B0907C27A41EA0261827A41EAC24115
:102B4000427B41EA8241827B41EA4241C27B41EAC7
:102B50000241427A41EA0221027A41EA42010278C4
:102B60001143584A8832116005E00021554A8432E9
:102B70001160121D1160704710B500F09CF810BD77
:102B80002DE9F04304462046002808DA4D4F00F0B6
:102B90000F0CACF1040C17F80C703F0902E04A4F1F
:102BA0003F5C3F093D460E4606F00700C0F10708AE
:102BB000B8F1040F02D94FF0040801E0C0F1070892
:102BC000C44600F10408B8F1070F02D24FF0000824
:102BD00001E0A0F10308474625FA07F84FF0010984
:102BE00009FA0CF9A9F1010908EA0908C2F80080FC
:102BF0004FF0010808FA07F8A8F1010808EA0508EB
:102C0000C3F8008000BFBDE8F08300BF00F01F02E2
:102C1000012191402E4A8032430942F8231000BF1F
:102C2000704710B501460846294A8032430952F8D8
:102C3000232000F01F040123A3401A400AB10122FF
:102C400000E00022104610BD00BF00F01F0201216D
:102C50009140204A430942F8231000BF704710B545
:102C6000014608461B4A8032430952F8232000F0EF
:102C70001F040123A3401A400AB1012200E00022F0
:102C8000104610BD042808D14FF0E021096941F039
:102C900004014FF0E022116107E04FF0E0210969E3
:102CA00021F004014FF0E02211617047704710B528
:102CB000FFF7FCFF10BD03480C380068C0F302208A
:102CC0007047000018ED00E000E400E00000FA05A5
:102CD00080E100E080E200E0F948006800F4007064
:102CE000B0B1F748006820F40070F549086000BFF3
:102CF0000846006840F4006008600846006820F458
:102D00000060086000BF0846006840F4007008607A
:102D1000EB48006800F48060B0B1E948006820F436
:102D20008060E749086000BF0846006840F48050B2
:102D300008600846006820F48050086000BF08461C
:102D4000006840F480600860704710B5002201B947
:102D500009E0012901D10A0205E0022901D10A0294
:102D600001E04FF440720B2800D9001DD44B103302
:102D70001B6823F44073D24C1034236023461B6835
:102D80001343236023461B6823F0F8032360234684
:102D90001B68022444EAC0042343C94C1034236056
:102DA00023461B6843F48033236010BDC44A1032AD
:102DB000126822F44072C24B10331A60032907D103
:102DC0001A461268DB131A43BD4B10331A6012E027
:102DD000012908D1BA4A1032126842F00402B84BF5
:102DE00010331A6007E0B64A1032126842F400420B
:102DF000B34B10331A60B24A103212684FF480336A
:102E000043EA00231A43AE4B10331A6070472DE992
:102E1000F04104460E460127002500BFA948007E68
:102E2000012802D10220BDE8F0810120A5490876E1
:102E300000BF4CF2503004F0F5FA0746002F36D1AF
:102E4000401E30602068012812D1207C6168FFF7A5
:102E5000ADFF4CF2503004F0E5FA074698481030C8
:102E6000006848F2040188439549103108601CE06D
:102E7000A56814E0217C2846FFF767FF4CF250302C
:102E800004F0D0FA07468E481030006820F0FA00AF
:102E90008B49103108600FB1356005E06D1CD4E935
:102EA00002100844A842E5D800BFFFF715FF00BF95
:102EB00000208449087600BF3846B4E770B5044660
:102EC000002500BF7F48007E012801D1022070BD8F
:102ED00001207C49087600BF79481030006840F036
:102EE00080707749103108600846006840F0007033
:102EF0000860F320091F08602068012809D102201A
:102F00007049087060680861207C6168FFF74EFFB7
:102F10000CE001206B490870E0684860A068C86058
:102F2000207C0872217CA068FFF70FFF2846CEE7BF
:102F3000014663481430007820F00C00604A1432D7
:102F400010701046007808431070002070472DE97B
:102F5000F04104460D4616464FF0FF0800274CF29C
:102F6000503004F05FFA07465FB9554814300078D6
:102F700000F01F0845EA080030432043504914314F
:102F800008703846BDE8F08170B5044600254CF263
:102F9000503004F047FA054615B949481530047019
:102FA000284670BD70B504460D4600264CF25030E0
:102FB00004F038FA0646E6BB4348844203D1012DAB
:102FC00004D0032D02D0B4F5805F15D23E48844270
:102FD00009D13B4816300088C4F30F310843384903
:102FE0001631088011E0364816300088A1B2084337
:102FF00033491631088008E031481A300088C4F39C
:103000000F3108432E491A3108802F48844210D1CD
:10301000032D0ED14CF2503004F004FA064646B9A6
:1030200027481A300088C4F30F31084324491A3165
:103030000880304670BD70B504460D4600264CF23F
:10304000503004F0EFF90646C6BB1F48844203D156
:10305000012D04D0032D02D0B4F5805F13D21A489D
:10306000844208D116481630008820EA14301449EA
:10307000163108800FE0124816300088A04310492E
:103080001631088007E00E481A30008820EA143014
:103090000B491A3108800C4884420FD1032D0DD101
:1030A0004CF2503004F0BEF906463EB904481A30DE
:1030B000008820EA143002491A310880304670BD79
:1030C000003C0240900C002000F0FF0070B5044668
:1030D000012500BF9B48007E012801D1022070BD60
:1030E00001209849087600BF207800F0010068B1FF
:1030F0006068012805D1D4E90201FFF79CFF05466D
:1031000004E0D4E90201FFF74DFF0546207800F006
:103110000200022803D1207CFFF736FF0546207805
:1031200000F00400042809D1237E03F0800203F09C
:10313000400103F02000FFF70AFF0546207800F069
:103140000800082803D1207DFFF7F2FE054600BFE6
:1031500000207C49087600BF2846C0E77A480078FE
:1031600000F00C0070477848006800F0E0007047FD
:10317000AA207549491C0978CC2901D1CC2007E047
:103180007149491C0978552901D1552000E0AA2030
:1031900070476D48801C0088704710B504460F20AA
:1031A0002060FFF7F6FFA060FFF7E2FF2061FFF766
:1031B000DAFF2076FFF7D2FF606110BD70B50446DC
:1031C00000254CF2503004F02DF905464DB95E480B
:1031D000007820F010005C49087008460078204311
:1031E0000870284670BD2DE9F04107460D4614468B
:1031F00000264CF2503004F015F906460EBB012CA7
:1032000001D0032C07D15048801C0088B8434E4998
:10321000891C088006E04C48801D0088A8434A4964
:10322000891D0880032C0CD14CF2503004F0FAF8C0
:10323000064636B94448801D0088A8434249891D86
:1032400008803046BDE8F0812DE9F04107460D4683
:10325000144600264CF2503004F0E4F8064626BB33
:10326000012C01D0032C08D13748801C0088B9B24A
:1032700008433549891C088007E03348801D0088D1
:10328000A9B208433049891D0880032C0DD14CF2A6
:10329000503004F0C7F806463EB92B48801D008820
:1032A000A9B208432849891D08803046BDE8F0814D
:1032B00070B504460125207800F0010078B16068FF
:1032C000012806D1E189A089A268FFF7BDFF054664
:1032D00005E0E189A089A268FFF785FF054620780F
:1032E00000F00200022803D1207CFFF767FF0546AB
:1032F000284670BD1449891C098881811249891D9D
:103300000988C1811049097801747047FF210E486E
:10331000C01C007800F07F0141F080000A4AD21CF6
:10332000107000207047FF210748C01C007800F093
:103330007F010548C01C0170002070470248801DB5
:1033400000887047900C0020143C024010B5002407
:103350000120B349086000F0C2F9044607E000F01C
:10336000BEF9001BB0F57A7F01D9032010BDAD482E
:103370004068C0F3C0000028F1D00020F6E710B587
:1033800000240020A649086000F0A9F9044607E0DF
:1033900000F0A5F9001BB0F57A7F01D9032010BD1C
:1033A000A0484068C0F3C0000028F1D100BFF6E794
:1033B00001209B49A4394862704700209849A439EC
:1033C000486270479748006800F44040704738B53D
:1033D0000546002400BF002000909348006840F09C
:1033E0008050914908600846006800F080500090C5
:1033F00000BF00BF8C483838006800F00C00082877
:103400004CD000208949086600F069F9044606E0BE
:1034100000F065F9001B022801D9032038BD82485D
:1034200040380068C0F340600028F1D100BF009030
:103430007C48006820F4404028437A4908600846E8
:10344000006800F44040009000BF00BF01207749B1
:10345000086600F044F9044606E000F040F9001B5D
:10346000022801D90320D9E76F4840380068C0F32B
:1034700040600028F1D000F032F9044607E000F087
:103480002EF9001BB0F57A7F01D90320C6E7654805
:103490004068C0F380300028F1D001E00120BDE792
:1034A0000020BBE738B5002400BF002000905E4834
:1034B000006840F080505C4908600846006800F0F1
:1034C0008050009000BF00BF01205549A439086416
:1034D00000F005F9044607E000F001F9001BB0F523
:1034E0007A7F01D9032038BD4E48406800F480300F
:1034F000B0F5803FF0D101204949A439486400F07B
:10350000EEF8044607E000F0EAF8001BB0F57A7F19
:1035100001D90320E7E74348406800F40030B0F5E4
:10352000003FF0D10020DEE738B5002400BF0020C6
:1035300000903D48006840F080503B4908600846D4
:10354000006800F08050009000BF00BF00203449A8
:10355000A439486400F0C3F8044607E000F0BFF85F
:10356000001BB0F57A7F01D9032038BD2D48406893
:1035700000F40030B0F5003FF0D000202849A43915
:10358000086400F0ACF8044607E000F0A8F8001B5F
:10359000B0F57A7F01D90320E7E72248406800F4BC
:1035A0008030B0F5803FF0D00020DEE718B502464D
:1035B0000B46002100BF002000901B48006840F02F
:1035C0008050194C20602046006800F08050009028
:1035D00000BF00BF1348406840F44020114C6060B9
:1035E0002046006840F4402020602046016840F6F4
:1035F000034081431143204601600D48006840F0BC
:1036000004000B4C2060012B01D130BF00E020BF33
:103610000748006820F00400054C2060002018BD19
:10362000A4000E42007000404038024000004742B3
:1036300010ED00E0704770B50446634800684FF431
:103640007A71B0FBF1F52846FFF71CFA00222146FB
:10365000501EFFF7A1F9002070BD10B55B4800684F
:1036600040F40070594908600846006840F48060E2
:1036700008600846006840F4807008600320FFF787
:1036800079F90120FDF7BCFDFFF7D4FF002010BD44
:10369000704710B54FF0FF304D49086000200860BA
:1036A000401E091D086000200860401E484910396E
:1036B000086000200860401E091D086000200860A6
:1036C000401E091D086000200860FFF7E1FF002090
:1036D00010BD40480068401C3E49086070473D48A6
:1036E0000068704731B5FFF7FAFF0546009C601C83
:1036F00000B1641C00BFFFF7F2FF401BA042FAD3E9
:1037000038BD4FF0E020006920F002004FF0E021CA
:10371000086170474FF0E020006940F002004FF070
:10372000E021086170472C4870472C480068000C65
:1037300070472A480068C0F30B007047274840686C
:1037400040F001002549486070472448406820F057
:1037500001002249486070472048406840F002005C
:103760001E49486070471D48406820F002001B4910
:10377000486070471948406840F0040017494860A5
:1037800070471648406820F00400144948607047AC
:1037900001201349086070470020114908607047F4
:1037A0001049096801600F49091D096841600D4908
:1037B000083109688160704701200B490862704731
:1037C00000200949086270472C000020003C02409C
:1037D00020380240C000002000020701002004E061
:1037E00000042742107AFF1F00002742704770B57F
:1037F00004460D460CB9012070BD94F82C0028B980
:10380000002084F82D002046FFF7F0FF022084F806
:103810002C00211D206808F025F82946D4E9000273
:1038200008F063F8012084F82C000020E4E77047DA
:1038300010B504462046FFF7FAFFD4E9000108F06E
:10384000A0F8002084F82C0000BF84F82D0000BFF1
:1038500010BD704710B504462068806900F0010073
:1038600040B12046FFF7F5FF2068406940F00100B5
:103870002168486110BD7047704730B504460D4659
:1038800000BF94F82D00012801D1022030BD012095
:1038900084F82D0000BF94F82C00022800D1F5E731
:1038A00094F82C00052801D10120EFE704E02878E6
:1038B0001070521C6D1C5B1E002BF8D100BF002045
:1038C00084F82D0000BF00BFE0E770B504460D4648
:1038D0002E46002100BF94F82D00012801D10220BE
:1038E00070BD012084F82D0000BF94F82C1002292F
:1038F00001D10220F4E7052901D0042901D10120DA
:10390000EEE704E010783070521C761C5B1E002B32
:10391000F8D100BF002084F82D0000BF00BFDFE712
:1039200030B504460D4600BF94F82D00012801D1A2
:10393000022030BD012084F82D0000BF94F82C0037
:10394000022800D1F5E794F82C00052801D10120C8
:10395000EFE704E028881080921CAD1C5B1E002B52
:10396000F8D100BF002084F82D0000BF00BFE0E7C1
:1039700070B504460D462E46002100BF94F82D0078
:10398000012801D1022070BD012084F82D0000BF64
:1039900094F82C10022901D10220F4E7052901D066
:1039A000042901D10120EEE704E010883080921C48
:1039B000B61C5B1E002BF8D100BF002084F82D0040
:1039C00000BF00BFDFE730B504460D4600BF94F8E6
:1039D0002D00012801D1022030BD012084F82D00E6
:1039E00000BF94F82C00022800D1F5E794F82C00D1
:1039F000052801D10120EFE704E028681060121DBE
:103A00002D1D5B1E002BF8D100BF002084F82D0077
:103A100000BF00BFE0E770B504460D462E4600210A
:103A200000BF94F82D00012801D1022070BD0120B3
:103A300084F82D0000BF94F82C10022901D1022037
:103A4000F4E7052901D0042901D10120EEE704E0C3
:103A500010683060121D361D5B1E002BF8D100BFB0
:103A6000002084F82D0000BF00BFDFE72DE9F04102
:103A700004460E4617469846002500BF94F82D00D0
:103A8000012802D10220BDE8F081012084F82D0038
:103A900000BF94F82C50022D01D10220F3E7052D30
:103AA00001D10120EFE75D48216BC8635C48216BC1
:103AB000C86443463A463146206BFEF74FFC00BFD0
:103AC000002084F82D0000BF00BFDCE72DE9F041A5
:103AD00004460E4617469846002500BF94F82D0070
:103AE000012802D10220BDE8F081012084F82D00D8
:103AF00000BF94F82C50022D01D10220F3E7052DD0
:103B000001D0042D01D10120EDE74448216BC863A9
:103B10004348216BC864434632463946206BFEF762
:103B20001DFC00BF002084F82D0000BF00BFDAE7B5
:103B300010B5044694F82C00022800D110BD0220D4
:103B400084F82C00D4E9000107F02BFF042084F84E
:103B50002C000020F2E710B5044694F82C0002284F
:103B600000D110BD022084F82C00D4E9000107F038
:103B700021FF012084F82C000020F2E770B50446F4
:103B80000D46164694F82C00022800D170BD022084
:103B900084F82C0032462946206807F014FF286874
:103BA000022803D1052084F82C0002E0012084F8CB
:103BB0002C000020EAE770B504460D4694F82C006E
:103BC000022800D170BD022084F82C00294620680C
:103BD00007F022FF012084F82C000020F2E770B5E6
:103BE00004460D4694F82C00022800D170BD022036
:103BF00084F82C002946206807F015FF012084F87E
:103C00002C000020F2E710B50446D4E9000107F0CB
:103C100011FF10BD014691F82C007047773800085D
:103C200079380008704770B50446002600250CB9A5
:103C3000012070BD94F83D0028B9002084F83C00B4
:103C40002046FFF7EFFF242084F83D00206800683D
:103C500020F00100216808600BF02EF90546F748B6
:103C6000B5FBF0F620684660F5496068884201D8E7
:103C7000701C07E04FF4967070434FF47A71B0FBFC
:103C8000F1F0401C21680862ED49606888420ED856
:103C900060684000B5FBF0F0C0F30B00042801D2CF
:103CA00004202DE060684000B5FBF0F028E0A0683B
:103CB00028B9606800EB4000B5FBF0F008E06068F0
:103CC00000EBC00101EB0010B5FBF0F040F48040C8
:103CD000C0F30B0008B9012012E0A06828B96068A1
:103CE00000EB4000B5FBF0F008E0606800EBC001BD
:103CF00001EB0010B5FBF0F040F4804040F40040D0
:103D00002168C861D4E90701084321680860D4E943
:103D10000310084321688860D4E90501084321683D
:103D2000C8602068006840F0010021680860002039
:103D30002064202084F83D000020206384F83E00A9
:103D400000BF76E7704710B504460CB9012010BDDE
:103D5000242084F83D002068006820F001002168DC
:103D600008602046FFF7EEFF0020206484F83D0045
:103D7000206384F83E0000BF84F83C0000BF00BF11
:103D8000E5E7014608684069C0F3802088B16FF418
:103D900080600A68506104200864002008632020C5
:103DA00081F83D0000BF002081F83C0000BF0120E9
:103DB00070470020FCE770B504460D4616461DE02E
:103DC0002046FFF7DEFF08B1012070BD681CA8B1D6
:103DD00025B1FFF784FC801BA8420FD9206C40F06E
:103DE0002000206400202063202084F83D0000BFD4
:103DF000002084F83C0000BF0320E6E7206840690B
:103E0000C0F380000028DBD00020DEE770B5044658
:103E10000D4616461DE02046FFF7B3FF08B101200E
:103E200070BD681CA8B125B1FFF759FC801BA842E2
:103E30000FD9206C40F02000206400202063202057
:103E400084F83D0000BF002084F83C0000BF032040
:103E5000E6E720684069C0F3C0100028DBD00020EE
:103E6000DEE72DE9F04104460D4616461F4631E0D7
:103E700020684069C0F38020C0B12068006840F429
:103E80000070216808606FF4806021684861042038
:103E9000206400202063202084F83D0000BF002023
:103EA00084F83C0000BF0120BDE8F081701C88B19F
:103EB00026B1FFF714FCC01BB0420BD900202063D1
:103EC000202084F83D0000BF002084F83C0000BFA3
:103ED0000320E9E7C5F3074001280AD120684069BB
:103EE000A9B20840A9B2884201D101200BE000200C
:103EF00009E020688069A9B20840A9B2884201D1CE
:103F0000012000E000200028B2D00020CCE72DE9FD
:103F1000F04104460D4617461E46DDF8188017E0AE
:103F2000701CA8B12EB1FFF7DAFBA0EB0800B0427D
:103F30000ED900202063202084F83D00002084F862
:103F40003E0000BF84F83C0000BF0320BDE8F081C4
:103F5000C5F3074001280AD120684069A9B208408A
:103F6000A9B2884201D101200BE0002009E02068BD
:103F70008069A9B20840A9B2884201D1012000E0BD
:103F80000020B842CCD00020E0E72DE9F8430446F9
:103F90000D4617469846E66A042E04D0012E02D03C
:103FA00016F5803F06D12068006840F480702168D3
:103FB000086008E0206B122805D12068006840F4F2
:103FC0008070216808603B4600224FF001112046B6
:103FD000CDF80080FFF79BFF10B10320BDE8F88308
:103FE0002069B0F5804F04D105F0FE00216808611A
:103FF00017E005F44070F02141EAE0102168086103
:1040000043463A460F492046FFF72BFF30B1206C5C
:10401000042801D10120E1E70320DFE7E8B22168AD
:10402000086143463A460749891F2046FFF719FFB2
:1040300060B1206C042807D10120CFE740420F0077
:10404000A0860100080001000320C7E70020C5E7A3
:104050002DE9F8430446894616461F46DDF82080C0
:104060000025FFF73CFB054694F83D0020287DD154
:1040700019230122F84920460095FFF748FF10B1A7
:104080000220BDE8F88300BF94F83C00012801D16C
:104090000220F6E7012084F83C0000BF2068006899
:1040A00000F0010028B92068006840F00100216894
:1040B00008602068006820F4006021680860212002
:1040C00084F83D00102084F83E00002020646662E1
:1040D0006785E248E062608D20852B46424649466E
:1040E0002046FFF752FF80B1206C042806D100BFA4
:1040F000002084F83C0000BF0120C2E700BF002080
:1041000084F83C0000BF0320BBE700BF0020009004
:1041100020684069009020688069009000BF00BF5F
:1041200046E02A4641462046FFF770FE60B1206C0B
:10413000042807D12068006840F4007021680860F6
:1041400001209EE703209CE7616A481C60620878B2
:1041500021680861608D401E6085208D401E20858D
:1041600020684069C0F3800078B100E034E0208D21
:1041700058B1616A481C6062087821680861608DE6
:10418000401E6085208D401E20852A4641462046DF
:10419000FFF711FE60B1206C042807D12068006889
:1041A00040F400702168086001206AE7032068E796
:1041B000208D0028B5D12068006840F40070216887
:1041C0000860202084F83D00002084F83E0000BFF5
:1041D00084F83C0000BF54E7022052E770B5044663
:1041E0000D46164629E020684069C0F3001080B1F2
:1041F0006FF01000216848610020206420632020B7
:1042000084F83D0000BF002084F83C0000BF01207E
:1042100070BD25B1FFF763FA801BA8420DD9206C51
:1042200040F020002064202084F83D0000BF0020E2
:1042300084F83C0000BF0320EAE720684069C0F32F
:1042400080100028CFD00020E2E72DE9F843044693
:104250000D4690461E46E76A2068006840F480607C
:1042600021680860042F04D0012F02D017F5803F89
:1042700006D12068006840F480702168086008E07A
:10428000206B112805D12068006840F480702168F7
:104290000860434600224FF0011120460096FFF7C8
:1042A00036FE10B10320BDE8F8832069B0F5804FD9
:1042B00005D1E8B240F001002168086149E005F449
:1042C0004070F02141EAE01021680861334642461F
:1042D00063492046FFF7C5FD30B1206C042801D1A9
:1042E0000120E0E70320DEE7E8B2216808613346F9
:1042F00042465B49891F2046FFF7B3FD30B1206C71
:10430000042801D10120CEE70320CCE700BF002024
:10431000009020684069009020688069009000BF8C
:1043200000BF2068006840F4807021680860434640
:1043300000224FF0011120460096FFF7E8FD08B17A
:104340000320B0E705F44070F12141EAE010216854
:104350000861334642464249891F2046FFF781FDE6
:1043600030B1206C042801D101209CE703209AE79A
:10437000002098E72DE9F8430446894617469846F9
:10438000089E0025FFF7ABF9054694F83D0020286C
:1043900061D119230122304920460095FFF7B7FD6E
:1043A00010B10220BDE8F88300BF94F83C0001285A
:1043B00001D10220F6E7012084F83C0000BF20680C
:1043C000006800F0010028B92068006840F0010092
:1043D000216808602068006820F400602168086097
:1043E000222084F83D00102084F83E000020206444
:1043F0006762A4F82A801948E062608D20852B4608
:10440000324649462046FFF720FF80B1206C042841
:1044100006D100BF002084F83C0000BF0120C1E7A6
:1044200000BF002084F83C0000BF0320BAE7208DC5
:10443000C0B900BF0020009020684069009020684B
:104440008069009000BF00BF2068006840F40070E1
:10445000216808604CE01FE1020010000000FFFF2F
:1044600008000100208D012817D12068006820F481
:1044700080602168086000BF0020009020684069CB
:10448000009020688069009000BF00BF206800682D
:1044900040F40070216808602AE0208D022816D1BF
:1044A0002068006820F48060216808602068006847
:1044B00040F400602168086000BF00200090206880
:1044C0004069009020688069009000BF10E020687B
:1044D000006840F480602168086000BF0020009000
:1044E00020684069009020688069009000BF00BF8C
:1044F000C3E0208D032872D8208D01281AD12A46C6
:1045000031462046FFF76AFE30B1206C202801D1E9
:10451000032047E7012045E720680069C1B2626ACD
:10452000501C60621170208D401E2085608D401EE1
:104530006085A2E0208D02282AD133460022FA4964
:1045400020460095FFF7E3FC08B103202AE7206826
:10455000006840F400702168086020680069C1B2FA
:10456000626A501C60621170208D401E2085608D33
:10457000401E608520680069C1B2626A501C60629A
:104580001170208D401E2085608D401E608574E076
:1045900033460022E44920460095FFF7B8FC08B1F5
:1045A0000320FFE62068006820F48060216808602E
:1045B00020680069C1B2626A501C60621170208D6F
:1045C000401E2085608D401E608533460022D649FE
:1045D00020460095FFF79BFC10B10320E2E620E0A7
:1045E0002068006840F40070216808602068006955
:1045F000C1B2626A501C60621170208D401E20851D
:10460000608D401E608520680069C1B2626A501CDE
:1046100060621170208D401E2085608D401E608577
:104620002BE02A4631462046FFF7D8FD30B1206CFA
:10463000202801D10320B5E60120B3E620680069F7
:10464000C1B2626A501C60621170208D401E2085CC
:10465000608D401E608520684069C0F3800060B1B5
:1046600020680069C1B2626A501C60621170208DBE
:10467000401E2085608D401E6085208D00287FF4BF
:1046800038AF202084F83D00002084F83E0000BFB1
:1046900084F83C0000BF85E6022083E62DE9F8435C
:1046A00004460E46174698460025FFF718F80546BB
:1046B00094F83D00202876D106B117B90120BDE855
:1046C000F88300BF94F83C00012801D10220F6E7EE
:1046D000012084F83C0000BF2068006800F0010061
:1046E00028B92068006840F001002168086020684F
:1046F000006820F4006021680860212084F83D00F3
:10470000202084F83E000020206466626785874888
:10471000E062608D20852068006840F48060216838
:104720000860434600228049891E20460095FFF715
:10473000EEFB08B10320C2E700BF00200090206814
:104740004069009020688069009000BF00BF206928
:10475000B0F5404F15D1434600227349891E2046CB
:104760000095FFF7D4FB08B10320A8E700BF0020A5
:10477000009020684069009020688069009000BF28
:1047800000BF32E02A4641462046FFF73FFB68B1B2
:104790002068006820F4806021680860206C04288C
:1047A00002D101208BE743E0032088E7616A481CBF
:1047B0006062087821680861608D401E6085208DE8
:1047C000401E208520684069C0F3800068B1208DBC
:1047D00058B1616A481C6062087821680861608D80
:1047E000401E6085208D401E2085208D0028C9D167
:1047F000434600224FF4823120460095FFF787FBA5
:1048000008B103205BE76FF480602168486120688D
:10481000006820F4806021680860202084F83D0052
:10482000002084F83E0000BF84F83C0000BF46E74B
:10483000022044E770B504460D4616461BE02046AC
:10484000FFF79FFA08B1012070BD25B1FEF747FFC1
:10485000801BA8420FD9206C40F02000206400206B
:104860002063202084F83D0000BF002084F83C0035
:1048700000BF0320E8E720684069C0F3001000286B
:10488000DDD00020E0E72DE9F84304460E4615464A
:104890001F464FF00008FEF722FF804694F83D00C7
:1048A00020287DD106B115B90120BDE8F88300BFED
:1048B00094F83C00012801D10220F6E7012084F899
:1048C0003C0000BF2068006800F0010028B92068A3
:1048D000006840F00100216808602068006820F44A
:1048E000006021680860222084F83D00202084F8C0
:1048F0003E0000202064666265850C48E062608DA1
:1049000020852068006840F48060216808603B468C
:1049100000220549891E2046CDF80080FFF7F7FAEE
:1049200030B10320C1E70000040001000000FFFFD8
:1049300000BF0020009020684069009020688069D6
:10494000009000BF00BF34E0424639462046FFF7E2
:1049500045FC60B12068006820F480602168086030
:10496000206C202801D103209FE701209DE72068CB
:104970000069C1B2626A501C60621170208D401ED5
:104980002085608D401E608520684069C0F38000EE
:1049900078B175B120680069C1B2626A501C00E04C
:1049A0003CE060621170208D401E2085608D401EAD
:1049B0006085208D0028C7D1424639462046FFF742
:1049C00039FF60B12068006820F4806021680860C9
:1049D000206C042801D1012067E7032065E700BFB0
:1049E000002000902068406900902068006840F036
:1049F00001002168086000BF00BF2068006820F443
:104A0000806021680860202084F83D00002084F840
:104A10003E0000BF84F83C0000BF46E7022044E7A8
:104A200038B504460020009094F83D00202862D15B
:104A3000F74800681925B0FBF5F04FF47A75B0FB24
:104A4000F5F000EBC00505EB0010009000BF0098EA
:104A5000451E009558B900202063202084F83D00B1
:104A600000BF002084F83C0000BF032038BD206850
:104A70008069C0F340000028E9D100BF94F83C00F1
:104A8000012801D10220F1E7012084F83C0000BF99
:104A90002068006800F0010028B92068006840F034
:104AA0000100256828602068006820F400602568FF
:104AB0002860212084F83D00102084F83E0000206A
:104AC000206462626385D348E062608D2085616402
:104AD0002068006840F480702568286000BF0020CE
:104AE00084F83C0000BF2068406840F4E06025681E
:104AF00068600020BAE70220B8E738B50446002015
:104B0000009094F83D00202868D1C148006819251C
:104B1000B0FBF5F04FF47A75B0FBF5F000EBC00593
:104B200005EB0010009000BF0098451E009558B995
:104B300000202063202084F83D0000BF002084F87E
:104B40003C0000BF032038BD20688069C0F34000EE
:104B50000028E9D100BF94F83C00012801D10220CF
:104B6000F1E7012084F83C0000BF2068006800F0F5
:104B7000010028B92068006840F00100256828601D
:104B80002068006820F4006025682860222084F8EE
:104B90003D00102084F83E0000202064626263859E
:104BA0009C48E062608D208561642068006840F464
:104BB0008060256828602068006840F4807025685F
:104BC000286000BF002084F83C0000BF20684068D7
:104BD00040F4E060256868600020B4E70220B2E796
:104BE0007CB50446069D00200190009094F83D009D
:104BF000202878D1042D01D0012D24D184480068CB
:104C00001926B0FBF6F04FF47A76B0FBF6F000EB25
:104C1000C00606EB0010009000BF0098461E0096EC
:104C200058B900202063202084F83D0000BF0020F8
:104C300084F83C0000BF03207CBD20688069C0F37D
:104C400040000028E9D100BF94F83C00012801D1C0
:104C50000220F1E7012084F83C0000BF20680068D2
:104C600000F0010028B92068006840F001002668C3
:104C700030602068006820F40060266830602120E1
:104C800084F83D00102084F83E0000202064626219
:104C90006385E562608D20856164206B01900198D9
:104CA000122801D0019880B9042D01D0012D06D120
:104CB0002068006840F480702668306005E0206855
:104CC000006840F480702668306000BF002084F8DF
:104CD0003C0000BF2068406840F4E06026687060D7
:104CE0000020A9E7FFE70220A6E778B50446059D66
:104CF0000020009094F83D0020287DD1042D01D0A3
:104D0000012D24D1424800681926B0FBF6F04FF47B
:104D10007A76B0FBF6F000EBC00606EB00100090D0
:104D200000BF0098461E009658B90020206320203E
:104D300084F83D0000BF002084F83C0000BF032041
:104D400078BD20688069C0F340000028E9D100BF29
:104D500094F83C00012801D10220F1E7012084F8F9
:104D60003C0000BF2068006800F0010028B92068FE
:104D7000006840F00100266830602068006820F478
:104D8000006026683060222084F83D00102084F8FE
:104D90003E000020206462626385E562608D2085AC
:104DA0006164206B112801D0206B10BB042D04D04E
:104DB000012D02D015F5803F0CD12068006840F429
:104DC0008060266830602068006840F48070266843
:104DD00030600EE0206B11280BD12068006840F491
:104DE0008060266830602068006840F48070266823
:104DF000306000BF002000E00EE084F83C0000BFFF
:104E00002068406840F4E06026687060002097E702
:104E10002C0000200000FFFF022091E718B5034698
:104E20000020009093F83D00202865D101B10AB917
:104E3000012018BDF84800681924B0FBF4F04FF4C5
:104E40007A74B0FBF4F000EBC00404EB00100090A7
:104E500000BF0098441E009458B900201863202019
:104E600083F83D0000BF002083F83C0000BF032012
:104E7000DFE718688069C0F340000028E9D100BF6F
:104E800093F83C00012801D10220D2E7012083F8E9
:104E90003C0000BF1868006800F0010028B91868DD
:104EA000006840F001001C6820601868006820F469
:104EB00000601C682060212083F83D00202083F8DA
:104EC0003E000020186459625A85D448D862588D33
:104ED00018851868006840F480601C68206000BF76
:104EE000002083F83C0000BF1868406840F4E06090
:104EF0001C68606000209CE702209AE718B5034612
:104F00000020009093F83D00202864D101B10AB937
:104F1000012018BDC04800681924B0FBF4F04FF41C
:104F20007A74B0FBF4F000EBC00404EB00100090C6
:104F300000BF0098441E009458B900201863202038
:104F400083F83D0000BF002083F83C0000BF032031
:104F5000DFE718688069C0F340000028E9D100BF8E
:104F600093F83C00012801D10220D2E7012083F808
:104F70003C0000BF1868006800F0010028B91868FC
:104F8000006840F001001C6820601868006820F488
:104F900000601C682060222083F83D00202083F8F8
:104FA0003E000020186459621A855A859B48D862D1
:104FB0001868006840F480601C68206000BF002012
:104FC00083F83C0000BF1868406840F4E0601C684B
:104FD000606000209DE702209BE738B5044694F806
:104FE0003D00282844D101B10AB9012038BD00BFD5
:104FF00094F83C00012801D10220F7E7012084F851
:105000003C0000BF2068006800F0010028B920685B
:10501000006840F00100256828602068006820F4DE
:10502000006025682860292084F83D00202084F84D
:105030003E000020206461626285E362608D20850D
:1050400000BF0020009020684069009020688069BF
:10505000009000BF00BF00BF002084F83C0000BFEC
:105060002068406840F4E060256868600020BDE783
:105070000220BBE738B5044694F83D00282844D107
:1050800001B10AB9012038BD00BF94F83C000128E5
:1050900001D10220F7E7012084F83C0000BF20681E
:1050A000006800F0010028B92068006840F00100A5
:1050B000256828602068006820F400602568286062
:1050C0002A2084F83D00202084F83E00002020643F
:1050D00061626285E362608D208500BF00200090E0
:1050E00020684069009020688069009000BF00BF80
:1050F00000BF002084F83C0000BF2068406840F4F6
:10510000E060256868600020BDE70220BBE701463B
:1051100091F83D0020281BD1282081F83D00086827
:10512000006800F0010028B90868006840F001003C
:105130000A6810600868006840F480600A681060BF
:105140000868406840F440700A685060002070476A
:105150000220FCE7014691F83D0028281BD191F878
:105160003D0000F0030291F83E0010430863202048
:1051700081F83D00002081F83E000868006820F4B6
:1051800080600B6818600868406820F440700B6805
:105190005860002070470220FCE7704770B5054654
:1051A000AC6B2846FDF7D1FB022814D020680068BC
:1051B00020F480602168086000206085202084F849
:1051C0003D00002084F83E00206C40F01000206478
:1051D0002046FFF7E2FF70BD704770472DE9F041B0
:1051E0000546AC6B94F83D6094F83E70212E03D0D8
:1051F000222E15D1202F13D12068406820F40060A2
:1052000021684860002060852068406840F4407054
:105210002168486038E000002C0000200000FFFFFB
:105220002068006820F480602168086020680068B9
:1052300040F40070216808602068406820F48050C5
:10524000216848602068406820F400602168486058
:1052500000206085206C18B12046FFF79EFF13E008
:10526000202084F83D0094F83E00402806D100201C
:1052700084F83E002046FFF7B0FF05E0002084F8E8
:105280003E002046FFF7A8FFBDE8F081F8B50446D0
:105290000D4616461F460020009094F83D00202839
:1052A0007DD1FD4800681921B0FBF1F04FF47A710F
:1052B000B0FBF1F000EBC00101EB0010009000BF6B
:1052C0000098411E009158B900202063202084F8E6
:1052D0003D0000BF002084F83C0000BF0320F8BD63
:1052E00020688069C0F340000028E9D100BF94F82D
:1052F0003C00012801D10220F1E7012084F83C00A4
:1053000000BF2068006800F0010028B9206800682C
:1053100040F00100216808602068006820F4006007
:1053200021680860212084F83D00102084F83E00A8
:105330000020206466626785D848E062608D208521
:105340006564208D60B3D648616BC863D548616BD6
:10535000C8640020616B0864616B4864616B886499
:10536000616B0865238DD4F800C00CF11002616AEE
:10537000606BFCF7F3FF2068006840F480602168F0
:1053800008602068006840F480702168086000BFF1
:10539000002084F83C0000BF2068406801E024E061
:1053A0000AE040F44070216848602068406840F49A
:1053B00000602168486016E02068006840F4806062
:1053C000216808602068006840F4807021680860E7
:1053D00000BF002084F83C0000BF2068406840F413
:1053E000E06021684860002079E7022077E7F8B59F
:1053F00004460D4616461F460020009094F83D00D6
:1054000020287DD1A44800681921B0FBF1F04FF4A9
:105410007A71B0FBF1F000EBC00101EB00100090DD
:1054200000BF0098411E009158B900202063202041
:1054300084F83D0000BF002084F83C0000BF03203A
:10544000F8BD20688069C0F340000028E9D100BFA2
:1054500094F83C00012801D10220F1E7012084F8F2
:105460003C0000BF2068006800F0010028B92068F7
:10547000006840F00100216808602068006820F49E
:10548000006021680860222084F83D00102084F824
:105490003E0000202064666267858048E062608D7F
:1054A00020856564208D60B37D48A16BC8637D480D
:1054B000A16BC8640020A16B0864A16B4864A16B58
:1054C0008864A16B0865238DD4F800C00CF110012D
:1054D000626AA06BFCF742FF2068006840F48060BD
:1054E000216808602068006840F4807021680860C6
:1054F00000BF002084F83C0000BF2068406801E045
:1055000024E00AE040F44070216848602068406868
:1055100040F400602168486016E02068006840F4AC
:105520008060216808602068006840F4807021680D
:10553000086000BF002084F83C0000BF206840687D
:1055400040F4E06021684860002079E7022077E7B6
:105550007047704770B50546AC6B2068006820F452
:1055600080602168086000206085616B0865A16B20
:10557000086594F83D00602810D1202084F83D0093
:10558000002084F83E0020642068006820F00100BC
:10559000216808602046FFF7DCFF0EE0202084F839
:1055A0003D00002084F83E002068006820F00100E3
:1055B000216808602046FFF7F0FD70BD70B5044615
:1055C00094F83D50292D01D02A2D05D100202063CB
:1055D000282084F83D0011E094F83D00602809D0AF
:1055E0002068406800F40060B0F5006F02D0202011
:1055F00084F83D000020206384F83E0020680068A5
:1056000020F40060216808602068406800F40060B1
:10561000B0F5006F4AD12068406820F4006021682E
:105620004860606B90F83500012814D01E48616B0B
:105630000865606BFCF73AFF002865D020680068B9
:1056400020F0010021680860202084F83D00606B94
:10565000016D884758E01448A16B0865A06BFCF702
:1056600025FF002850D020684069C0F3801030B179
:1056700020680069C1B2626A501C606211702068C3
:10568000006820F0010021680860202084F83D00B7
:10569000A06B016D884737E02C0000200000FFFF61
:1056A000DD5100089D5100085555000894F83D0053
:1056B00060281AD1202084F83D0000202064206852
:1056C0004069C0F3801030B120680069C1B2626ADD
:1056D000501C606211702068006820F00100216891
:1056E00008602046FFF735FF0EE020684069C0F3F0
:1056F000801030B120680069C1B2626A501C6062DB
:1057000011702046FFF749FD94F83D00282811D17B
:10571000206C00F0040004280CD1F848E06200205E
:105720002063202084F83D00002084F83E002046BD
:10573000FFF70EFF70BD70B504460D4694F83E00AD
:1057400010282DD100BF94F83C00012801D102207F
:1057500070BD012084F83C0000BF00202063602061
:1057600084F83D002068006820F4806021680860AB
:105770002068006840F4007021680860002060859F
:105780002068406820F4E0602168486000BF002085
:1057900084F83C0000BF2046FFF710FF0020D7E749
:1057A0000120D5E7F8B504460D46164600200090C6
:1057B00094F83D0020287DD105B10EB90120F8BD37
:1057C000CF4800681921B0FBF1F04FF47A71B0FBBB
:1057D000F1F000EBC00101EB0010009000BF009859
:1057E000411E009158B900202063202084F83D001C
:1057F00000BF002084F83C0000BF0320DFE72068E2
:105800008069C0F340000028E9D100BF94F83C0053
:10581000012801D10220D2E7012084F83C0000BF1A
:105820002068006800F0010028B92068006840F096
:105830000100216808602068006820F40060216889
:105840000860212084F83D00202084F83E000020DC
:10585000206465626685A948E062608D2085A9485C
:10586000616BC863A848616BC8640020616B086401
:10587000616B4864616B8864616B0865238D276880
:1058800007F11002616A606BFCF768FD2068006830
:1058900040F480602168086000BF002084F83C006C
:1058A00000BF2068406840F440702168486020686C
:1058B000406800E005E040F4006021684860002096
:1058C0007DE702207BE7F8B504460D46164600202A
:1058D000009094F83D0020287DD105B10EB901203B
:1058E000F8BD874800681921B0FBF1F04FF47A71D8
:1058F000B0FBF1F000EBC00101EB0010009000BF25
:105900000098411E009158B900202063202084F89F
:105910003D0000BF002084F83C0000BF0320DFE70B
:1059200020688069C0F340000028E9D100BF94F8E6
:105930003C00012801D10220D2E7012084F83C007C
:1059400000BF2068006800F0010028B920680068E6
:1059500040F00100216808602068006820F40060C1
:1059600021680860222084F83D00202084F83E0051
:1059700000202064656266856048E062608D208555
:105980006048A16BC8636048A16BC8640020A16B2C
:105990000864A16B4864A16B8864A16B0865238DC2
:1059A000276807F11001626AA06BFCF7D7FC20683A
:1059B000006840F480602168086000BF002084F81F
:1059C0003C0000BF2068406840F440702168486097
:1059D0002068406800E005E040F40060216848600D
:1059E00000207DE702207BE72DE9F8430446884646
:1059F00015469946DDE908672068006840F4807024
:105A000021680860334600224FF0011120460097BC
:105A1000FEF77DFA10B10320BDE8F88308F0FE0020
:105A2000216808613B46324638492046FEF719FA9C
:105A300030B1206C042801D10120EDE70320EBE711
:105A400000BF0020009020684069009020688069B5
:105A5000009000BF00BF3A4631462046FEF7D6F917
:105A600060B1206C042807D12068006840F4007001
:105A7000216808600120CFE70320CDE7B9F1010FCD
:105A800003D1E8B22168086119E0C5F30720216855
:105A900008613A4631462046FEF7B8F960B1206CFD
:105AA000042807D12068006840F40070216808606D
:105AB0000120B1E70320AFE7E8B2216808610020C8
:105AC000AAE72DE9FC5F04460F4690469946DDE9BA
:105AD0000CAB0E9E0025FDF702FE054694F83D0036
